:020000040000FA
:10000000A0162020C1020000C5020000C7020000A7
:1000100000000000000000000000000000000000E0
:10002000000000000000000000000000C902000005
:100030000000000000000000CB020000CD02000024
:10004000CF0200000D330000693600008137000048
:10005000CF020000CF020000CF020000CF0200005C
:1000600000000000CF020000CF02000000000000EE
:1000700000000000D5360000313700008136000056
:100080002936000049360000093600001936000004
:100090005936000039360000000000000000000062
:1000A000CF020000CF0200000000000000000000AE
:1000B000CF02000000000000CF020000CF020000CD
:1000C00000F002F800F0D1F812A030C80838241867
:1000D0002D18AC4201D100F0C8F80FCCA246AB46B7
:1000E0000CA730CF2D1B083F3F197C427F1E544484
:1000F0002D090426F441641EAC4201D300F0B5F88A
:100100000126334200D0FB1A3343984754465D46DC
:10011000DFE70000E472000004730000000000004C
:10012000103A02D378C878C1FAD8520701D330C840
:1001300030C101D504680C60704700000000000069
:100140007047000000000000002300240025002666
:10015000103A01D378C1FBD8520700D330C100D583
:100160000B60704710B56E2902D101F0FBF810BD8D
:10017000702902D101F035FA10BD662902D106F0CE
:1001800005FB10BD652902D106F000FB10BD6729F3
:1001900002D106F0FBFA10BD612902D106F0FEFA89
:1001A00010BD03681B0A01D380231943692902D1BA
:1001B00001F0A2F810BD642902D101F09DF810BD34
:1001C000752902D101F098F810BD6F2902D101F014
:1001D000B3F910BD782902D101F0F0F910BDE92979
:1001E00002D101F04FF910BDE42902D101F04AF922
:1001F00010BDF52902D101F045F910BDEF2902D15A
:1002000001F0A6F910BDF82902D101F0E5F910BD01
:100210000368DB0901D380231943632902D101F06C
:10022000C8FE10BD732902D101F0CBFE10BDE32939
:1002300002D101F0D5FE10BDF32902D101F0D8FEA4
:1002400010BD002010BD1FB501F088FF0400002084
:10025000002106F0C9F9401C60600020002106F072
:10026000ADF9E0601FBD10B510BD01F04FFF1146A4
:10027000FFF7E9FF04F0E4FB02F0E4FA03B4FFF750
:10028000F2FF03BC03F018FB70B505460C4616469A
:1002900002E00FCC0FC5103E102EFAD2082E02D36A
:1002A00003CC03C5083E042E07D301CC01C5361F7D
:1002B00003E021782970641C6D1C761EF9D270BD94
:1002C00006480047FEE7FEE7FEE7FEE7FEE7FEE73B
:1002D00003480449044A054B70470000C100000070
:1002E000A0022020A0162020A0062020A00620206A
:1002F0000FB41CB5084B06AA7B44694600900598CC
:1003000001F049F804460020694601F057F82046FC
:100310001CBC08BC04B01847C110000030B5441C18
:1003200003E00178401C00290DD08107F9D10B4B67
:10033000DD0104C8D11A91432940FAD0001B0A06F6
:1003400003D0C01E30BD001B30BD0A0401D0801E8A
:1003500030BD0902FCD0401E30BD0000010101018A
:10036000F8B5042A2CD3830712D00B78491C0370EC
:10037000401C521E83070BD00B78491C0370401C95
:10038000521E830704D00B78491C0370401C521E78
:100390008B079B0F05D0C91ADF002023DE1B08C97D
:1003A0000AE0FFF771FFF8BD1D4608C9FD401C4675
:1003B000B4402C4310C0121F042AF5D2F308C91A06
:1003C000521EF0D40B78491C0370401C521EEAD414
:1003D0000B78491C0370401C012AE4D40978017091
:1003E000F8BD01E004C0091F0429FBD28B0701D529
:1003F0000280801CC90700D00270704700290BD012
:10040000C30702D00270401C491E022904D383078F
:1004100002D50280801C891EE3E70022EEE700225D
:10042000DFE70000002203098B422CD3030A8B4232
:1004300011D300239C464EE003460B433CD40022DC
:1004400043088B4231D303098B421CD3030A8B42EE
:1004500001D394463FE0C3098B4201D3CB01C01ABC
:10046000524183098B4201D38B01C01A5241430987
:100470008B4201D34B01C01A524103098B4201D375
:100480000B01C01A5241C3088B4201D3CB00C01AE2
:10049000524183088B4201D38B00C01A524143085A
:1004A0008B4201D34B00C01A5241411A00D201467F
:1004B0005241104670475DE0CA0F00D04942031018
:1004C00000D3404253409C46002203098B422DD367
:1004D000030A8B4212D38901FC2212BA030A8B420F
:1004E0000CD3890192118B4208D3890192118B425E
:1004F00004D389013AD0921100E08909C3098B42E3
:1005000001D3CB01C01A524183098B4201D38B0125
:10051000C01A524143098B4201D34B01C01A5241C8
:1005200003098B4201D30B01C01A5241C3088B420D
:1005300001D3CB00C01A524183088B4201D38B00F8
:10054000C01A5241D9D243088B4201D34B00C01A82
:100550005241411A00D201465241104663465B1097
:1005600001D34042002B00D54942704763465B10DF
:1005700000D3404201B50549002802DC491C08406F
:1005800000E00846C046C04602BD00BFFFFFFF7F37
:100590007047704770470000F0B50C46871A9C41C1
:1005A0000D46861A9D4103D2C01BA141D219634159
:1005B0000D0D1F0DC94EEC1BAE435CD07F057F0DAA
:1005C0000026002F51D02D05AC46A943DD020123A2
:1005D000ED0A1B051D4320231B1B24D41746E740AF
:1005E000381871412F46E740CC199D4028183146F4
:1005F00061410C0D27D161449A4013D50023401C62
:10060000594152000ED14008400001224B005205D2
:10061000D34207D305204007C14201D5B04900E0CD
:10062000B0493046F0BD6B00002A00D001229A1874
:100630001F23203C1B1B01D5002302E0E5402818A6
:1006400071410C0DD7D0012424050919C407CD0729
:1006500040084908E40F28436144002CD5D0002409
:10066000401C61419A40D0D1CDE76A05520DD9D1E5
:10067000C90FC907D5E79C4D4E00002801D00124C1
:1006800000E0002434195F00002A01D0012600E0B8
:100690000026BE19954FAC420CD8AE420AD8B442DF
:1006A00006D001256D05EC42BCD010461946F0BDC0
:1006B0009942FCD000203946F0BDF0B51FB40C467D
:1006C0000F46811A9F412546861A9D4106D2012573
:1006D000ED076F40401ABC4152187B41210D1E0DA1
:1006E0008D1BAC467D4D8D437ED075056D0D7CD048
:1006F0000D05AE46AC431B031B0B794D52429D4189
:10070000202366469B1B14D31746F7403818002653
:100710000090744160462F460741E41900989D40BF
:100720002818664116D4714671189A4025D50123C0
:1007300020E093182A466A415200002B00D0521C38
:100740001E23203E9B1B002B61DD3541EE17281830
:100750006641E8D5001876415B1C9A4000D3401CE6
:100760004B05F3181524E34010D3002B52D07146EB
:100770007118D30FC01802D3491C05B0F0BD012376
:10078000DB079A42F9D140084000F6E70122520502
:10079000B21801D1002853D00123CC0ADB029943BF
:1007A000891E002A08D1020C03D0020C0004103963
:1007B00002E00246002020390023550B05D1120229
:1007C0000823550B01D152010D23550C01D1120103
:1007D0001B1DD50C01D192009B1C150D01D152009F
:1007E0005B1C2025EE1A01E02CE022E00546F540D6
:1007F00015439840CA1AE10769181305C918002A59
:10080000BBDA032040070818C10FC9070FE0714683
:100810006118B2E7F10740080843711071444A00BB
:100820000CD001235B059A42A7D2C90FC90700204B
:10083000A3E74905490D26D1002001E00028F4D1A5
:1008400000219AE7284D6600002801D0012100E030
:10085000002171185F00002A01D0012600E0002667
:10086000BE19224FA94210D8AE420ED8B14208D0CC
:1008700001256D05E94206D01946A80241401046FF
:100880007BE79C4201D0214677E70020394674E798
:1008900010B50C465C4005D50124E4076340FFF722
:1008A0000CFF10BDFFF778FE10BD30B40C465C4065
:1008B00004D50124E407634030BC6DE630BCFCE69F
:1008C00070B50124E40761400D465D4002D4FFF796
:1008D00063FE70BD6340FFF7F0FE70BDFF070000D0
:1008E0000000F0FF0000F07F0000E0FF0000F87F54
:1008F000F0B5F94D0C091E092C402E402F468BB047
:10090000A7437DD0B543FCD0002E7AD0002CFCD07C
:100910000D465D40ED0F2543AC1BFF25AD0464196A
:100920000894C502440DC9022143500DDC02044362
:100930000120C00701430443D2020191200C110C95
:1009400000958C46010423468B430A9161460904B5
:10095000E24D8A430991010A7D4449198039097899
:1009600005464D4301266D18F605751B6943C90CF4
:10097000640B891C4C436418B5012C1B250C2E04F8
:10098000B4434C434D43210C691889090591009DDE
:10099000E90701D00121C90704912C460199670894
:1009A000CD072F434C08059DE10B4D432D0C2946E7
:1009B0006646754302950D4645432E46029D7D1BB6
:1009C000B44100950D465D4301942C0C2F040D4657
:1009D0005543AE462D0C3D43029503947546049C49
:1009E0002D04641B049406D2029C039D641C002603
:1009F00075410395029401AC70CC009F7D1B01E012
:100A00003EE162E1B4410904009507910194059922
:100A1000A4086143090C0C464443650BE7040C46EB
:100A200066467443A646640B3C43039502947446A1
:100A3000049DE4042C1B049406D2029C039D641CB8
:100A4000002675410395029401AC70CC009F7D1B7C
:100A5000B44101940C465C430095650FE7000C46D9
:100A60005443A646640F3C43039502947446049D88
:100A7000E4002C1B049406D2029C039D641C0026F7
:100A800075410395029401AC70CC009F7D1BB4416D
:100A9000AE09AF06049DC900AD092F43049DA4060D
:100AA000AD060495079D344369180791059DE10B38
:100AB0004D432D0C29466646754302950D46454328
:100AC0002E46029D7D1BB44100950D465D43019469
:100AD0002C0C2F040D465543AE462D0C3D4302957C
:100AE00003947546049C2D04641B049406D2029C56
:100AF000039D641C002675410395029401AC70CCE3
:100B0000009F7D1BB44101948C050694079C890AC3
:100B1000611800950791019C0599A4086143090C8F
:100B20000D464543680BEF040D46644665436C0B68
:100B30003C43049FED047D1BAC4602D20025641C9F
:100B40006841009E019D371B854108465843019529
:100B50000C46460FC5005443600F28436546E40029
:100B60002C1B02D20025401C6E41019D3F1AB5414D
:100B70002846BD09800628438446A009BF064E02C8
:100B80000699A40676180743079D002068410A9934
:100B9000079019430020099B00906046FF191343FA
:100BA0004041E20F64003A43A4460446D71A8C4100
:100BB000A04203D90120009020463A46C70F94185E
:100BC00040416246D20F2243644664000494009C74
:100BD000BE466400D71AA446044602978C41774665
:100BE000002F01D1A04204D96046401C8446029ADD
:100BF0002046C40FA64694184041049A0546D20FD9
:100C0000224364466400D31A8D417146002901D104
:100C1000A84202D928461A46641C10430122002823
:100C200000D0164361020020079B891904465C41ED
:100C30000223002C02DB491813466441089DCE0AAA
:100C40002D145D194B056705E10A2C050D1908994E
:100C50003E43C9076940002B08D0934006D30022C9
:100C6000761C5141002B01D1760876001C4A002DDC
:100C700043DB154241D0AA433FD030460BB0F0BD14
:100C800006180D464D41174C7642AC411AD39518C3
:100C90001C465C41134A6D42A24113D30122520506
:100CA0004C00D4420AD15C00D4420BD04B4002D558
:100CB00092021143E2E749004908DFE75940C90FB2
:100CC000C90718E000200849D8E7054801420DD1BE
:100CD0000342F7D0F2E700000000FF07505E00007B
:100CE0000000F07F0000E0FF0000F87F114859404D
:100CF0000143C01241400020C0E70123089A9B062F
:100D00009A4205DC032252078918C90FC907B5E7C3
:100D1000052252078918074A1143D2125140ADE704
:100D200070B515461C4602460B4628462146FFF77D
:100D3000DFFD70BDFFFFFF7F30B50346CA02400DE7
:100D40001043164D164C0A1502D02043002A06DB2C
:100D5000AA1A002A12DDD040FF2A0BDC30BD520552
:100D6000520D01D140004008AA1A07D4D040404299
:100D7000FF2A01DD002030BD0028FCDD4A00002BE9
:100D800001D0012000E00020101801225205D042BD
:100D9000F0D8C817C043604030BD00001E040000FA
:100DA000000000801F22030C02D10F22000402D099
:100DB000030E03D004E00020014670470002083A09
:100DC000030F01D10001121F830F01D18000921E79
:100DD000002801DB4000521E120551184205C012C6
:100DE000411810467047C10FC90700D04042012288
:100DF00092071143D6E701218907D3E7F0B58B4C61
:100E00000F09254689B0BD437BD01D092646AE4358
:100E1000FAD00E465E402740F60F3E43254071D083
:100E200024012142FBD0FF24AD19A4042D1B0395FE
:100E300001252D05DB02DB0AC9022B43C90A294320
:100E40001E010901040F130F050121431701880B2F
:100E5000820391432D098C46A90B1E438A039543B7
:100E6000B30B9A0396433F09BA0B9403A743029628
:100E70002E467E430497B6464E19D7190C46019666
:100E8000544305977E43371B7646BF1B3601B64653
:100E9000BE0B361900967646BC043719009C01D368
:100EA000641C00946400002F01D001263443029E8C
:100EB000049F754366467E430496760034196E009F
:100EC00034190094029C019E1C196643751BAE46A2
:100ED000069465464519059C05956C43594375462E
:100EE0000891691A0191049E01465143A41B049183
:100EF000611A009C0791E10605D0610901221143A6
:100F000002E072E06EE06109089D00272C0A2D06C0
:100F10006918049D7C412A0A2D066918019D6241C9
:100F2000AC0DAD026D185441079A910D92025519FE
:100F30006141029A644658435443069B059A5A43BA
:100F4000121A131B9A0E9B015B187A41010B0005C4
:100F5000C3185141220A200644195A419A4200D22C
:100F6000491C01204002814203D315230226F64387
:100F700002E014230326F6432020C51AA940174691
:100F8000AF40DA400A4320460399D8400914731849
:100F900019055118039A3843D2075140AC4009D083
:100FA0000122944006D30022401C5141002C01D163
:100FB000400840001E4A934212D301220398920631
:100FC000904207DB0520400709181A480143C01268
:100FD000414004E0032040070818C10FC907002062
:100FE00009B0F0BD0020F107FAE705180C464C41A6
:100FF00011486D42A04115D394181A465A410E4823
:10100000644290410ED301204A004005824209D338
:101010005A00824206D35940C90F084AC907002026
:101020001143DDE700200649DAE700000000FF0772
:10103000FE070000FFFFFF7F0000E0FF0000F07FE1
:101040000000F87FF0B5FF252D04C609C209FF276F
:1010500004462E400137CB093E4348402A402B40EE
:101060000746002A6BD0002B69D0AA4267D0AB425A
:1010700065D0002800DA32460125ED0529432C43CE
:1010800009022002090AD21A4B0C7F24E31A434CAE
:10109000000A7C44E35C7D242404121914145B00D0
:1010A000A218884201D3521C00E0400049420C467D
:1010B0005C4324115C43DB016415E318040A5C43C0
:1010C000C502200D0C4644436419250A5D432303E1
:1010D000EC0C0D46654300030019EB184C42A3428B
:1010E00001D35B18401CD4052018002B07D05B00EF
:1010F000C91804D3401C002901D1400840003F21F9
:1011000089048A4209D3002A08DC1106090F04D099
:10111000032149074018C00FC007F0BD012241005C
:10112000120689187F2252069142F6D205214907FC
:10113000C84201D59010F0BDFF20C005F0BD002FC2
:1011400000DA32461648AA4207D2AB4205D219024B
:10115000090E17D0F80FC007F0BDFF2563002D065C
:10116000AB42F9D84900A942F6D8AB4201D1A94215
:10117000F2D0A94201D1002101E061004908D00567
:101180000843F0BD1102090EFBD0FF200243D00539
:10119000F0BD0A460146104654E70000965700008D
:1011A0000000C07F0102C21504D00123DB071943F0
:1011B000002A0ADB9E239A1A02D40846D0407047C0
:1011C000FF2241001206914201D900207047C0174A
:1011D000C04370471F22030C02D10F2200041CD011
:1011E000030E01D10002083A030F01D10001121FC2
:1011F000830F01D18000921E002801DB4000521EA7
:10120000D2055118021251181922904004D3491CDA
:10121000002801D14908490008467047C10FC90795
:1012200000D04042012292071143D3E701218907F0
:10123000D0E770B5044685690068C10601D530263F
:1012400000E02026C00707D070BD62683046A16864
:101250009047206A401C20626D1EF6D570BD70B5A7
:10126000044685690078C00707D170BD6268A1682F
:1012700020209047206A401C20626D1EF6D570BD6C
:1012800009684A0501D540B27047C905FCD500B2CE
:10129000704709684A0501D5C0B27047C905FCD539
:1012A00080B2704770B50C460546012A05D02878F3
:1012B000800600D5EA69002302E0012305E05B1CFB
:1012C000934202D2E05C0028F9D1A869E618C01A5E
:1012D000A861286AC01828622846FFF7AAFF04E020
:1012E0006A682078A968641C9047B442F8D32846FD
:1012F000FFF7B5FF70BD0000F7B500257529106830
:10130000009914A611D0FFF7BBFF002802DA404273
:1013100011A608E0009909688A0701D50FA602E026
:10132000490704D50EA6012501E0FFF7B2FF009F93
:101330000024243704E000F080FE30313955641C6D
:101340000028F8D12B4632462146009800F057FA83
:10135000FEBD0000000000002D0000002B0000007A
:101360002000000011680268006A530501D508706A
:1013700009E0D30501D5088005E0130602D5C217A0
:1013800005C100E0086001207047000001694A1CA7
:1013900002610878704700B58FB002910021059175
:1013A000054901937944039111460490684600F081
:1013B00025F90FB000BD0000E5FFFFFF0A681070BF
:1013C000521C0A6070470000F7B50446154686B007
:1013D0002B487844002703C83E460090019111E055
:1013E00007986A467100415A02A800F005FE411CA8
:1013F00007D02178890603D5E269391891420ED8C1
:101400003F18761C2078800602D5E069B84206DDD8
:10141000AE42E5DB07987100405A0028E0D1A06990
:10142000C01BA0612046FFF704FF154878445A38D6
:1014300003C800900020019116E041006A46079819
:10144000415A02A800F0D8FD0590401C0AD00025A2
:1014500005E0626802A8A168405D90476D1C059890
:101460008542F6D30498401CB0420490E5DB206A24
:10147000C01920622046FFF7F2FE09B0F0BD00005F
:1014800096540000F7B5D21D0025D20815A6D2004B
:10149000F52905CA11D0002A05DA00214042914100
:1014A00011A60A4608E0009909688B0701D50FA626
:1014B00002E0490701D50EA601251146009F002430
:1014C000243704E000F05EF930323A55641C0246DD
:1014D0000A43F7D12B4632462146009800F08FF997
:1014E000FEBD0000000000002D0000002B000000E9
:1014F0002000000070B504460021243408E05507A0
:10150000D2086D0F303565545D072A43DB08491C4E
:1015100015461D43F3D10468002310A2250708D502
:1015200020252C400C4304D0C46901230CA2641E66
:10153000C46100F064F970BD10B50446214610681E
:10154000FFF7A7FE002302462046FFF7D3FF10BD9A
:10155000D21DD108C9000CC9CCE700000000000072
:1015600030000000F8B50F460188090502D5224C6D
:101570007C4402E0204C7C440E3405460021243596
:1015800008E016071209360FA65D6E541E07324397
:101590001B09491C16461E43F3D12246047800233A
:1015A000240705D5702F06D0002901D0022311325F
:1015B00000F025F9F8BD01231032F9E770B50446B3
:1015C0000D4621461068FFF764FE002302462946B7
:1015D0002046FFF7C7FF70BDD21DD308DB000CCB40
:1015E000C0E730B403682024126823430360082353
:1015F000C36130BC0023B5E700530000F3B50446D7
:10160000002081B020622046E1688847002872D01F
:10161000252802D06268A168ABE0594F00267F44BC
:101620002046E16888472028054608DB312D06D290
:10163000781920380078002801D00643F0E7B00779
:1016400001D5042086430020E0610746A0612A2DD1
:101650000AD0284604F0AAFF002827D0B8000019B5
:10166000303D0090856119E00298BA00121902C855
:10167000916102902046E1688847012F054617D105
:10168000E06900281FDA202086431CE000980A2128
:101690008069484300994019303888612046E168E4
:1016A0008847054604F082FF0028EFD1012F0AD0B9
:1016B0002E2D08D12046E1688847054620200643A4
:1016C0007F1C022FC3DBA069002803DA4042A0611F
:1016D00001200643F00701D0102086436C2D0BD06B
:1016E000682D09D04C2D3CD06A2D38D0742D38D0BF
:1016F0007A2D36D016E040E0E1682F462046884734
:10170000B842054609D16C2F29D001208002E1683A
:10171000064320468847054604E06C2F1DD0FF2075
:1017200001300643002D28D028464138192803D817
:101730000120C00206432035204626602946029A31
:101740001646FEF70FFD002810D001280BD0F61D1D
:10175000F008C0000830029055E74020E1E7802003
:10176000D5E70020D3E7361D02964CE7626828468D
:10177000A1689047206A401C44E7206AFEBD000033
:101780007A5200000B4670B502468907800808436C
:1017900019469D08141AA941250908070543080997
:1017A0002C194841250A01060D43010A2C19414113
:1017B000200C0D0428430D0C00194D410021401947
:1017C0004D41C00869070843E908840F8D0025438F
:1017D000840024184D4124196D41121BAB4107E0D0
:1017E0000925ED432C11521963410024401C61412D
:1017F0001C460A250026551BB441F1D270BDFFB529
:1018000004460D4681B0243000902168880604D536
:101810001022E0699143216000E00120A84201DD2F
:10182000471B00E000270498A1697A191018081ACC
:10183000A0612078C00602D42046FFF7FAFC0026FB
:1018400008E003986268A168805D9047206A401CA8
:10185000761C206204988642F3DB2078C0060AD505
:101860002046FFF7E6FC06E06268A168302090475A
:10187000206A401C206238467F1E0028F4DC07E006
:1018800000986268A168405D9047206A401C206211
:1018900028466D1E0028F3DC2046FFF7E0FC207888
:1018A000000602D5022005B0F0BD0120FBE70000D4
:1018B000FFB50C461E468FB003CA089009914F0031
:1018C0007D0D00D16D1E002108460020C046032179
:1018D000099A89050840002A03DA82008018400826
:1018E0000840800D01280A9002DD0020C0430A90C4
:1018F000089807430DD0F048F049281848430714CA
:10190000189800281DD07542291E1DDD0A984242F4
:101910001BE01898012802D00020302104E00020AC
:10192000F24305E02154401CB042FBDB304600226C
:10193000189B002121540F998B600A60486013B0F6
:10194000F0BDBD1B6D1CDFE70A9A002900DA694271
:101950000BA800F04BFC0BAB07CB03AB07C30899FC
:10196000099800F0AFFC6B4607C30146D44809183C
:10197000002D00910BDDD24903980A9A4942401884
:10198000002303A90390684600F00CFF08E00399C8
:101990000A9A0023081803A90390684600F0ACFED9
:1019A0006B4607C30004000C03D00020C04341086D
:1019B00000E01046189A002A03D000220092154633
:1019C0001EE0751E05D4FFF7DDFE303262556D1E38
:1019D000F9D501220843079602D000227F1C04E0BB
:1019E0002078302801D100227F1E002A069787D058
:1019F0001EE0112D07DAFFF7C5FE303262556D1C6F
:101A000002460A43F5D1084303D00098002819D0B4
:101A10000EE00021681E05E0235C625C63542254E2
:101A2000401E491C8142F7DBA81B401E079506900B
:101A3000079A18990020A0540F98079B069A816076
:101A40000CC07CE711260020189059E7D21DF0B594
:101A50000D460446D10893B0C90003C90C900D91FE
:101A600004F076FD02460D98C00F01D02D2007E04E
:101A70002068810701D52B2002E04007C00F4001FC
:101A8000032A0F9001D0072A05DB0346294620468A
:101A900000F068FB0EE12078800601D5E76900E0E0
:101AA00006272846652D04D0662814D0672D69D1F5
:101AB0002DE00020112F009001DB112300E07B1CA2
:101AC0000CAA03A910A8FFF7F3FE1199002610989D
:101AD0007D1C0E9142E001203B460CAAC0070B90F2
:101AE0000120009003A910A8FFF7E2FE119D1298B3
:101AF0001099002600280E9501D1781C0D18781B2E
:101B000002D446427D1C761EE81B00903AE0012F6D
:101B100000DA01270020112F009001DD112300E0E1
:101B20003B460CAA03A910A8FFF7C2FE11993D4637
:101B3000109800260E91217809070BD40E99A9421E
:101B400000DA0D4603A9012D04DD4A19203AD27F9F
:101B5000302A06D0B84201DA011D04DA01210091D1
:101B60000FE06D1EEFE7002802DC86192D1A03E056
:101B7000411CA94200DD0D46801B401C0090012045
:101B8000C0070B902078000705D40098A84202DB1C
:101B90000020C043009069460020C8720B980121C4
:101BA00002AF0337C907884225D0022010902B20AE
:101BB00011900B9800280BDA40420B902D201190C9
:101BC00006E00B9800F039FA30317F1E0B90397027
:101BD0001099481E00291090F3DC0B980028F0D1D2
:101BE00011987F1E38702088000501D5452000E03F
:101BF00065207F1E387001A8C01BC01D0B900F9878
:101C0000002800D0012041190098C01709180B982E
:101C10000818A169081A401EA0612078C00602D4E5
:101C20002046FFF706FB0F98002805D06268A168E0
:101C30009047206A401C20622078C00625D52046A7
:101C4000FFF7F7FA21E0002E07DB0E98B04204DD23
:101C500003A86268805DA16802E06268A168302024
:101C60009047206A761C401C20620098401E002885
:101C700000900AD100F072FAC06862680168405CA6
:101C8000A1689047206A401C206228466D1E0028EB
:101C9000D9DC07E062683878A1687F1C9047206A29
:101CA000401C20620B99481E00290B90F2DC204654
:101CB000FFF7D5FA032042E601FCFFFF104D0000BC
:101CC000E1DFFFFFD21DF0B504460D46D0088DB010
:101CD000C000466807683146384604F039FC0246C1
:101CE000F00F01D02D2307E02068810701D52B23B9
:101CF00002E04007C00F43016846002B037001D08B
:101D0000012000E00020032A0A9001D0072A04DB0A
:101D10002946204600F026FA2DE12078800601D4DD
:101D20000D2500E0E5697000400D0D2D01904BDAA6
:101D3000300D00210B9008460020C0460321890584
:101D40000840002E05DA82008018C20F10184010DB
:101D500008408015012801DD0020C043A9000023B0
:101D6000182906D39C460A460123183A1B07D3407C
:101D700003E001221205CA4094460C31202902D307
:101D80003A46203900E032468A40002802DD002A27
:101D900006D119E0002817D10121C9078A4213D3BF
:101DA000194663467F185E41002806D10120C0070E
:101DB000824202D1084687439E430B98310D8142EF
:101DC00002D00198401C01902088000502D571497D
:101DD000794402E06F49794419396B460A983022F8
:101DE0001A540A980A7C401C1A54401C0A90019804
:101DF000002801DC302000E031201872019A012017
:101E0000002A02D0644BD21804E072003A4302D098
:101E1000614A521C0192002D02DC2278120703D580
:101E20006A462E20507202200022864694460CE01C
:101E300032033601120F6D1E8B5C02AA13546246E8
:101E4000521C401C9446052A01DA002DF0DC0022C9
:101E500002AE08E03B0F3F01CB5C521C6D1E3354B9
:101E6000401C082A01DA002DF4DC23689A0601D50B
:101E700011E0401E704504DD3218203AD27F302A2E
:101E8000F7D0002807DD3218203AD27F2E2A02D15F
:101E90001A0700D4401E002D03DD3E223254401CA0
:101EA0006D1E497C31540199401C002906DA2D2110
:101EB000471C315401984042019003E02B21471CFC
:101EC000315401987D21C900884206DBFEF7B4FA3F
:101ED0003030F0557F1C019101E0642808DB019847
:101EE0006421FEF7A9FA3030F0557F1C019101E022
:101EF0000A2806DB01980A21FEF79EFA3030F055D9
:101F00007F1C01980A21FEF797FA3031F1550A98A3
:101F1000A1697F1C7A191018081AA0612078C006E0
:101F200002D42046FFF785F9216A6E460A98081800
:101F3000206204E062683078A168761C90470A98B5
:101F4000401E0A90401CF5D12078C00602D52046DC
:101F5000FFF76FF902AE09E03078761C3E280DD00D
:101F60006268A1689047206A401C20627F1EF3D2FD
:101F70002046FFF774F90DB00320F0BD206A401928
:101F8000206203E06268A168302090476D1EEDD3A7
:101F9000F8E70000EC4A000001FCFFFF10B54369C0
:101FA000002B02D0C046C04601E0FFF77BF90120BC
:101FB00010BD1278014624310A7000224A700122B5
:101FC000ECE711680022D243E8E710B54369002B23
:101FD00002D0C046C04601E0FFF7F6F9012010BD6F
:101FE00012880146243182840022C2840122ECE757
:101FF00011680022D243E8E7F8B516460C460546BC
:1020000000F0A4F80368FF200230C05C012807D06C
:10201000FF2C0FD8185D00280CD001202C70F8BDC3
:10202000FF333246214608331868C7182846002374
:10203000B847F8BD0020C043F8BD01468008081A23
:1020400002091018020A1018020C1018C0088200A9
:1020500012185200891A01E0401C0A390A29FBD2E1
:1020600070470000F8B5264C4E00069DA6420AD8DF
:10207000A64201D1002806D15E00A64203D8A6429E
:102080000AD1002A08D00D242404254233D0294641
:10209000002000F0DFFBF8BD0C461C4311D4994230
:1020A00007D0C81A02D3EFF30080F8BDEFF3008029
:1020B000F8BD801A02D3EFF30080F8BDEFF3008083
:1020C000F8BD09242407E5008B4207D0581A02D333
:1020D000EFF3008006E0EFF3008007E0101A03D36F
:1020E000EFF30080A04303E0EFF30080A043284318
:1020F00080F30088F8BD009500F0C4FBF8BD000037
:102100000000E0FF00487047E80020207546FFF718
:10211000F9FFAE46050069465346C008C000854633
:1021200018B020B5FEF7D4F860BCB64600260027EC
:10213000C0C5C0C5C0C5C0C5C0C5C0C5C0C5C0C577
:10214000403D490849008D467047000010B500F039
:1021500005F8001D10BD00BF914400000048704705
:1021600008012020F8B51F46044601230068DB0261
:10217000032601461840072A05DB002801D017A5D1
:1021800006E017A504E0002801D016A500E016A57A
:10219000102081432160A069C01E002FA06101D0E2
:1021A000401EA0612046FFF744F8002F09D03846B2
:1021B0006268A1689047206A401C2062C01C2062AF
:1021C00006E0206AFAE762682878A1686D1C9047EB
:1021D000761EF8D22046FFF742F8F8BD4E414E0079
:1021E0006E616E00494E4600696E6600F7B5164690
:1021F0008AB0334878446C4603467C33C06F5A68D3
:102200009B680DC42E487844763003AC0DC80DC4CD
:102210003720C001081837211B30FEF70DF905469D
:102220000C46803D1B3C02D56442012000E00020AA
:102230000027099010E0E0070CD00C2020497843DB
:10224000794432464C3941186846012300F054FA6B
:102250006B4607C364107F1C002CECD1184F7F44E1
:102260002E3F16E0E80712D02001C0190EC80691D3
:10227000089307920068F04201D1981908903246FD
:10228000012306A903A800F037FA03AB07C36D10BA
:10229000641C002DE6D10998002806D03246694614
:1022A000012303A800F07EFA05E0012332466946C7
:1022B00003A800F021FA0A9B07C30DB0F0BD00008F
:1022C000DC460000034640000A4610B5400D0BD026
:1022D0000121C9070F24A40200191C03640821432B
:1022E000540D2143D20207E000210120F2E7D40F70
:1022F000490021435200401E0029F8DADB0FDB07BA
:10230000184310BDFFB50D46144685B048685168A6
:1023100004F006F900910190A868A16804F000F9A2
:1023200002910390A868616804F0FAF8029A121802
:102330008242029201D2012000E00020019A0B1893
:10234000D2180028019202D08A4202D903E08A42C0
:1023500001D2012000E00020009908180090686870
:10236000A16804F0DDF8029A12188242029201D2AA
:10237000012000E00020019A0B18D21800280192D9
:1023800002D08A4202D903E08A4201D2012000E051
:102390000020009908180090286821684000490032
:1023A000400849084018FA49471814E001994000CC
:1023B000C90F08430090019802994000C90F0843D3
:1023C0000190029803994000C90F084302900398B6
:1023D00040007F1E039000980028E7DA0898002844
:1023E00001D0EC4E00E00026B74201DA012000E007
:1023F0000020002804902AD0F71BF806C00E15D044
:10240000029B2021091A039A8B401A430392029AD5
:10241000019BC2408B401A430292019A009BC2402A
:102420008B4000991A430192C14000917B110DD05D
:102430006F460320C11A03D500218200B95003E082
:102440008A008100BA587A50401EF3D53746039867
:102450000299002800D00120014308980291002829
:1024600008460CD0002800D001200199019A4905A6
:1024700008430121D20AC902D202019200E00121DF
:102480000E9B0122D207012B02D0002B03D013E0B8
:10249000002807D120E0904204D890420CD1019B43
:1024A0000B4209D0019B5918019105D10099491C93
:1024B000009101D17F1C009200280DD01021084608
:1024C0000020C0460498002806D00F98002803D0AA
:1024D000082108460020C04628682168019B009A10
:1024E0004840C10F0598C90739430EC009B0F0BD77
:1024F000FFB587B0099A08980899536892684068B0
:10250000896896460022039317469446089A1268F3
:102510005300099A5B081268520052089A1A9E4B9F
:10252000D4180A9A002A01D0352200E040220692EF
:102530000022012315460492DB07059324E0002DB9
:1025400005D175460346039E4D1BB34109D375461D
:102550006646039B491B049D9841059B7519AC4633
:102560005F4163463B4308D0059B049EDD07760828
:102570002E435B080496059301E0521E641EC50FAE
:10258000ED0749184041521C069B9A42D7DB002DAB
:1025900004D17546039A6B1A824101D203200CE0E4
:1025A000039A0B466B404240134303D0014303D0D0
:1025B000012002E0022000E000206146019100219C
:1025C000009702910A99002905D061464002014313
:1025D000704B019102E08007002302909C4201DAD7
:1025E000012000E0002007003AD01A1BD006C00EE0
:1025F00015D0029D2021019C091AC5408C4025431D
:10260000029C8C4000D001242543019C0295009D32
:10261000C4408D4000992C430194C1400091541155
:102620001DD06D460221002202290CD10320001B7F
:1026300007E0002804DB8600AE59002E00D00122FE
:10264000401C0328F5DB081B02D588002A5004E053
:102650008000285810438A00A850491EE3D51C4624
:102660000A98002802980CD0002800D00120019977
:10267000019A490508430121D20AC902D2020192F6
:1026800000E00121109B0122D207012B02D0002B78
:1026900003D013E0002807D11FE0904204D89042F5
:1026A0000CD1019B0B4209D0019B5918019105D116
:1026B0000099491C009101D1641C009200280CD0A3
:1026C000102108460020C046002F06D0119800288F
:1026D00003D0082108460020C04608980999019AAD
:1026E000009B006809684840C10F0798C90721434B
:1026F00082600AC00BB0F0BD00B585B001930092B6
:102700000A460146002302A8FFF7FCFD02A807C8FD
:1027100005B000BDFFB50A461F4685B00799019375
:1027200001230091014602A8FFF7ECFD02990398EE
:10273000049ECA0F4900D20700920F224908920254
:102740008C1A0021002800DB0C46450013486D0858
:10275000844214D3079A002A04DA441E0026104D3E
:10276000F64302E004460D460E46102108460020BE
:10277000C046002F03D0042108460020C046200593
:10278000E90A0843009908436905F20A1143ADE6D6
:1027900002C0FFFF013C0000FF3F0000FF070000F8
:1027A000FFFFFF7F00B585B0019300920A46014606
:1027B000002302A8FFF79CFE02A807C8A8E7FFB500
:1027C0000A461F4685B007990193012300910146EF
:1027D00002A8FFF78DFE02990398049ECA0F4900D4
:1027E000D20700920F22490892028C1A0021002879
:1027F00000DB0C46450011486D08844214D3079A4B
:10280000002A04DA441E00260D4DF64302E0044679
:102810000D460E46102108460020C046002F03D06A
:10282000042108460020C0462005E90A0843009913
:1028300008436905F20A114358E60000FF0700004B
:10284000FFFFFF7F10B50446C046C0462046FDF797
:1028500015FD10BDC80212D54803400F002804D052
:10286000C803C043012188407047EFF30080000196
:10287000000903210907084380F3008870470020FE
:102880007047000010B500200249029A00F048F895
:1028900010BD00000000F87F024670B50A439207A1
:1028A0002AD11E4DEE0104C808C9541B944334407C
:1028B00017D0D0B2D9B2401A2106014310D190B23C
:1028C00099B2401A210401430AD110021902000AE8
:1028D000090A401A2102014302D1100E190E401AB2
:1028E00070BD9A42DFD010BA19BA884201D90120CE
:1028F00070BD0020C04370BD02780B78401C491C9D
:10290000002A09D09A4207D102780B78401C491C52
:10291000002A01D09A42EFD0D01A70BD0101010106
:1029200010B50C461107090F092904D00A290AD04D
:1029300008290CD104E011460820FFF78BFF06E0C0
:10294000510606D501E0510601D50120C0072146F8
:1029500010BDD10607D501010909CC084907000EB1
:102960000006044309E0410F20024907000A014321
:10297000200E00061D22D14101430846E7E7000072
:1029800081B0009000990120C2027F48885001B0B8
:102990007047C04681B000900099924A9248885092
:1029A00001B0704783B002900191009202980199A2
:1029B000084300990843EA49086003B07047C046DD
:1029C000E7480068072108407047C04682B0019080
:1029D0000199881E001F00BFFCD2009002B0704712
:1029E00084B00390029101920398006800900098CF
:1029F00001998843009000980299019A1140084378
:102A00000399086004B0704784B00390029101926A
:102A100003980068009000980199884300900098FE
:102A20000299019A114008430399086004B0704765
:102A300084B003900291019203980068009000987E
:102A400001998843009000980299019A1140084327
:102A50000399086004B0704784B00390029101921A
:102A600003980068009000980199884300900098AE
:102A70000299019A114008430399086004B0704715
:102A800084B003900291019203980068009000982E
:102A900001998843009000980299019A11400843D7
:102AA0000399086004B0704784B0039002910192CA
:102AB000039800680090009801998843009000985E
:102AC0000299019A114008430399086004B07047C5
:102AD00081B0009000990120C2022B48885001B0BB
:102AE0007047C04681B0009000990120C20226487C
:102AF000885001B07047C04610B584B0069C039062
:102B000002910192009302980199084300990843A9
:102B1000069908430349084303998900074A8850E6
:102B200004B010BD8100040081B0009000988100C5
:102B3000024A0020885001B07047C04604804240DD
:102B400081B000900099274A2748885001B070470B
:102B500081B000900099234A2348885001B0704703
:102B600081B0009000991A4A885801231843885070
:102B700001B0704781B0009000990120C202024864
:102B8000885001B07047C0460100002680B582B071
:102B9000019000910198112109024018009A1189B1
:102BA0005388194392791143084AFFF755FF01985A
:102BB00007494018009A9188D37919431278114334
:102BC0005D229200FFF748FF02B080BD7F33000016
:102BD0000411000081B000900099024A0248885018
:102BE00001B0704704080000030000B180B582B056
:102BF000019000910198044940180099034AFFF799
:102C0000EFFE02B080BDC04608110000FF030000C7
:102C100082B001900091009800780199044A885090
:102C200000984078019901221203885002B0704741
:102C30000410000080B584B000920A460146009856
:102C4000039102A90A7001AA10700398044BC018DE
:102C50000978127811433F22FFF7C2FE04B080BD0D
:102C60000C11000080B584B0039002910192039989
:102C700002980143019801433F200204CE48FFF728
:102C800013FF04B080BDC04680B586B0059000F04B
:102C900087F8FFE700F0B8F801218903084088426F
:102CA00001D0FFE7F6E70598417E2948039001220D
:102CB0000192FFF7F9FE05982021415C254802901A
:102CC0000322FFF7F1FEFFF77BFE01460198049116
:102CD00000210422FFF766FE02980599496A0968F7
:102CE0001D4A11600599496A49681C4A1160049996
:102CF0001B4A11600599C9694906490C7F221202D5
:102D0000FFF7D2FE0398059A11680907090B53686B
:102D10001B039BB2C91893681B071B0DC918D36806
:102D200019431369194353691943127E11430D4A1C
:102D3000FFF7BAFE00F05CF8FFE700F065F801214C
:102D400049020840884201D0FFE7F6E706B080BD9F
:102D500020010B4024010B4028010B402C010B40AB
:102D60000013404072FF0F007049086801221207EB
:102D7000904308607047C0465F490868012290434D
:102D8000086070475C4908680122904308607047FA
:102D90005949086801221202904308607047C046F2
:102DA0005549086801221202904308607047C046E6
:102DB0005E49086801221207104308607047C04648
:102DC000A149086801221203104308607047C046F9
:102DD0000249086810221043086070473C010B400C
:102DE0004549086801221202104308607047C04636
:102DF0004149086801221202104308607047C0462A
:102E0000034800687047C046014800687047C046E4
:102E100004020B4080B5FFF7F3FF0121490608408B
:102E2000400E80BD014800687047C04650010B400D
:102E300081B001466846017000780249086001B01F
:102E40007047C04608030B4080B582B001900199DD
:102E50001F2002065848FFF7EBFD02B080BDC046B8
:102E600080B582B0014601A8018001880F200202CE
:102E70007548FFF7DDFD02B080BDC04680B582B069
:102E8000014601A80170007801030F2002034A489F
:102E9000FFF7CEFD02B080BD80B586B005AB0193D3
:102EA0001880049103A802900270FFF76BFF01984D
:102EB000008800F023F8049800F02EF802980E4ADB
:102EC00011680123194311600078C00700280DD054
:102ED000FFE7FFF76DFFFFE7FFF796FF012109020C
:102EE0000840884201D0FFE7F6E702E0FFF73CFF29
:102EF000FFE706B080BDC04608010B4080B582B038
:102F0000014601A801800188032002030748FFF75A
:102F1000CBFD02B080BDC04680B582B00190019962
:102F20000248FF22FFF7C0FD02B080BD10010B4038
:102F300081B001466846017000780249086001B01E
:102F40007047C0460C010B4080B582B001900199DA
:102F50000878C007C00D89784118FF2204320B4859
:102F6000FFF7A2FD0A490B48086001984078C007A6
:102F7000002806D0FFE705490868102210430860C2
:102F8000FFE703490448086002B080BD14010B400C
:102F900014030B40010000910200009180B582B043
:102FA000014601A801800188012042020248FFF782
:102FB0003FFD02B080BDC04638010B4080B582B0F5
:102FC000014601A80170017802480322FFF730FD95
:102FD00002B080BD00010B4080B582B0014601A85F
:102FE0000170017818483022FFF722FD02B080BD41
:102FF00001490248086070472C030B400100000E95
:1030000080B582B0014601A801700078FFF790FFFB
:10301000FFE7FFF7F9FE012149050840884201D08A
:10302000FFE7F6E708490868012212041043086028
:10303000FFE7FFF7E9FE10210840102801D0FFE765
:10304000F7E702B080BDC04604010B40094908689B
:10305000052210430860704781B0009005490420A4
:1030600008600098401E0449086004490020086078
:1030700001B0704710E000E014E000E018E000E06C
:1030800081B0009000990120C2029548885001B09B
:103090007047C04681B0009000999A4A4F488850C6
:1030A00001B0704782B00190009100980199024AE6
:1030B000885002B07047C0464810000081B00090B0
:1030C000009911200202885801239843885001B0CA
:1030D0007047000082B001900091009B01990F4A57
:1030E00088589843885002B07047C04681B000901D
:1030F000009911200202885801231843885001B01A
:103100007047000082B001900091009B0199034A32
:1031100088581843885002B07047C04628100000F5
:1031200081B0009000990120C2026D48885001B022
:103130007047C04681B000900098812149014058F5
:10314000C0B201B07047000080B582B0019000911C
:103150000198FFF7B3FF0198112109024018009A66
:1031600011889378194392881143084AFFF788FC25
:1031700001982D494018009A9179D3791943127A10
:1031800011437E22FFF77CFC02B080BD186702006D
:1031900081B000900098474940580121084001B093
:1031A0007047C04681B000900098424940580421C1
:1031B0000840800801B0704781B000900098024933
:1031C0004058C0B201B070472411000081B0009097
:1031D00000994C4A0148885001B07047030000B183
:1031E00080B584B003900291019203980B49401876
:1031F00002990B4AFFF708FC03980A494018019905
:103200003F22FFF701FC0399074A881889580122D9
:103210001140FFF7F9FB04B080BDC046101100005B
:10322000FFFF0000141100000411000082B00190A3
:103230000091009800780199044A885000984078DD
:10324000019901221203885002B070470810000053
:1032500080B582B0019000910198112109024018B7
:1032600000990322D203FFF7CFFB02B080BD82B0EA
:1032700001906846017000780199892252018850B6
:1032800002B0704782B001900091009908784A78A6
:10329000104349880843019911221202885000996D
:1032A00048688968090408430199024A885002B0B5
:1032B0007047C0460811000081B0009000990120BD
:1032C000C2020748885001B07047C04681B00090E4
:1032D00000990120C2020248885001B07047C046E0
:1032E0000100002681B000900099064A06488850E7
:1032F00001B0704781B000900099024A024888509E
:1033000001B0704704080000010000B180B584B02E
:1033100003A90020087002A908703B4800688121B9
:103320004901405801900198002830D0FFE70198EA
:10333000411E03A8017000780F280EDCFFE7324819
:1033400000683249405803A909780907C90EC840E6
:103350000321084002A908700EE02B4800689D2157
:103360004901405803A909780907C90EC84003213B
:10337000084002A90870FFE703A8007883002448EA
:10338000C25802A800782349C95890473AE01E481D
:10339000406881214901405801900198002830D0AF
:1033A000FFE70198411E03A8017000780F280EDC8A
:1033B000FFE7154840681549405803A909780907EF
:1033C000C90EC8400321084002A908700EE00E484B
:1033D00040689D214901405803A909780907C90E91
:1033E000C8400321084002A90870FFE703A800783D
:1033F00083000748C25802A800780649C958904778
:10340000FFE7FFE704B080BD840020209013000098
:1034100004002020BC01202080B582B00920FFF7E5
:1034200083FB0A20FFF780FB0720FFF77DFB0820C6
:10343000FFF77AFB0021009101200204C30427203A
:10344000FFF75AFB02B080BD80B586B005A9002009
:1034500001900870FFF7F8FC019801221105920411
:10346000FFF700FCFFF7C4FDFFE7FFF7D3FC0028E0
:1034700001D1FFE7F9E7FFF7D5FC03900120010533
:1034800042040020FFF7EEFBFFF7B2FDFFE7FFF776
:10349000C1FC002801D1FFE7F9E7FFF7C3FC049066
:1034A00003997D20C00048430499FCF7BBFF0290BC
:1034B0000298FDF7A0FC00220D4B03F06AF80028EB
:1034C0000FD1FFE70298FDF796FC0022D243094B8B
:1034D00003F054F8002804D1FFE705A90120087083
:1034E000FFE705A800780121084006B080BDC0466E
:1034F00000289F40FF579F4080B582B00020009079
:10350000FFF796FC012001904002FFF7A9FC00980C
:10351000FFF754FDFFF730FCFFF73AFC019A032058
:1035200000030A21FFF7B8FC1648FFF7ADFBFFE7E1
:10353000FFF78AFF00280FD1FFE7FFF729FCFFF70D
:103540004FFCFFE7FFF75CFC01214902084088427D
:1035500001D0FFE7F6E7EBE71020FFF73DFD09207C
:10356000FFF78CFC0848FFF7EFFCFFF729FCFFF79B
:103570002FFC01204002FFF711FD0020FFF740FD66
:1035800002B080BD847100008071000080B55020C1
:10359000FFF762FDFFF75AFD80BD000080B50249CC
:1035A0001848FFF76FFE80BDAC71000080B500F0D9
:1035B00009F8FFF731FFFFF79FFFFFF7EFFFFFF776
:1035C000E5FF80BD80B584B00C480190FFF7C0FADC
:1035D0000B480290FFF7BCFA0A480390FFF78AFEF7
:1035E0000198FFF77FFA0298FFF77CFA0398FFF73C
:1035F0006DFE1020FFF7EAF904B080BD00000A401C
:1036000000200A400000034080B51B4802681B48A8
:1036100001680020904780BD80B517484268174870
:1036200041680020904780BD80B5134882681348E8
:1036300081680020904780BD80B50F4882690F489F
:1036400081690020904780BD80B50B48C2680B4857
:10365000C1680020904780BD80B5074802690748CF
:1036600001690020904780BD80B503484269034846
:1036700041690020904780BD580220208C00202006
:1036800080B582B01148FFF755FD014601910B2826
:103690000BD0FFE701980C2810D1FFE74A480268D9
:1036A0004A4801680220904709E0474802684748B5
:1036B00001680120904700F0E5FA00E0FFE70448C8
:1036C00001680248FFF7EEFC02B080BD00801040A8
:1036D0003090104080B582B01248FFF72BFD0146B4
:1036E00001910B280BD0FFE701980C2811D1FFE7BF
:1036F0003548426835484168022090470AE0324820
:103700004268324841680120904707480068804776
:1037100000E0FFE7054801680248FFF7C3FC02B07C
:1037200080BDC04600001040DC002020301010405A
:1037300080B582B01048FFF7FDFC014601910B28CF
:103740000BD0FFE701980C280ED1FFE71E488268D6
:103750001E4881680220904707E01B4882681B488A
:1037600081680120904700E0FFE7044801680248B3
:10377000FFF798FC02B080BD0020104030301040B0
:1037800080B582B0FA48FFF7D5FC014601910B28BD
:103790000BD0FFE701980C280ED1FFE70A48C2685A
:1037A0000A48C1680220904707E00748C2680748F6
:1037B000C1680120904700E0FFE705480168EC4838
:1037C000FFF770FC02B080BDB800202084022020EA
:1037D0003010504081B001466846017000214056CB
:1037E00000280DD4FFE7684601781F200140012022
:1037F000884004490860BFF34F8FBFF36F8FFFE726
:1038000001B0704780E100E081B001466846017078
:1038100000214056002809D4FFE7684601781F20A0
:1038200001400120884002490860FFE701B070476D
:1038300000E100E070B582B0024601A8027000917C
:1038400000214056002816D4FFE7002401A908579C
:103850000322D3431840174A805809578C07E50EB6
:10386000FF24AC40A043009CA401E4B2AC40204340
:10387000194088501AE001A908780F242040083820
:103880000322D34318400A4A8058002549578D0720
:10389000EE0EFF25B540A843009DAD01EDB2B54049
:1038A00028432140083919408850FFE702B070BD15
:1038B0001CED00E000E400E081B0009001B0704732
:1038C00010B58AB009AC207008A8017007A90A7069
:1038D00006A90B70007810280AD1FFE708A8017824
:1038E00006A80078014001201029029014D0FFE7BB
:1038F00008A801780020002901900AD1FFE708A854
:10390000007806A9097808401038411E88410190C6
:10391000FFE701980290FFE70298012108403A4929
:10392000E72200F02FF909A80178490905AA1170CA
:1039300000781F21084004A9087007A800780390A8
:10394000039832490843039006A80078401E00906F
:1039500013284BD80098810001A040588746C046E4
:10396000B1390000B7390000B9390000C53900008D
:10397000ED390000ED390000ED390000ED390000AF
:10398000ED390000ED390000ED390000ED3900009F
:10399000ED390000ED390000ED390000ED3900008F
:1039A000D1390000D3390000DF390000E1390000CF
:1039B000002003901AE019E003980121090408434C
:1039C000039013E0039801214904084303900DE09C
:1039D0000CE00398012149060843039006E005E046
:1039E00003980121490608430390FFE7039805A9BE
:1039F0000978490104AA12788A180549895C890066
:103A0000044A88500AB010BDA5720000800004006E
:103A1000B87100000480424080B582B0019000F08F
:103A20000BF8FFF7C3FD00F04DFF01F09BFD00F028
:103A300099FE02B080BD000080B592B04048009071
:103A4000FFF77EF83F480190FFF77AF80098FFF7FC
:103A50003FF80198FFF73CF83B480290FFF71AFB4C
:103A60003A480390FFF716FB0298FFF709FB03980B
:103A7000FFF706FB36480490FFF70CFB354805902E
:103A8000FFF708FB34480690FFF704FB3348079024
:103A9000FFF700FB32480890FFF7FCFA0498FFF7A5
:103AA000EFFA0598FFF7ECFA0698FFF7E9FA07989E
:103AB000FFF7E6FA0898FFF7E3FA2A480990FFF7BC
:103AC00085FB29480A90FFF781FB28480B90FFF7F8
:103AD0007DFB27480C90FFF779FB0998FFF720FB47
:103AE0000A98FFF71DFB0B98FFF71AFB0C98FFF7DE
:103AF00017FB20480D90FFF76DF81F480E90FFF759
:103B000069F80D98FFF736F80E98FFF733F80120A3
:103B100080070F90FEF73EFF18481090FEF73AFF1F
:103B20000F98FEF72DFF1098FEF72AFF144811900A
:103B3000FFF7D8FB1198FFF7BFFB12B080BDC0465E
:103B400000000A4000200A40000086400020864015
:103B5000004008400080864000A0864000000940E8
:103B600000008740008010400000104000201040FE
:103B7000000050400080464000A046400020004029
:103B80000000034080B584B003AB1870029101922D
:103B9000FFE703A80078002805D1FFE71048007868
:103BA000002801D1FFE718E00E480078002802D075
:103BB000FFE7FFE7FEE70B490878401C087000F0BC
:103BC00071FE00F051FAFFE70299019A06480023BE
:103BD00000F06AF800F00AF8F6E704B080BDC046CD
:103BE000E00020204C0120205772000082B000200D
:103BF000019000900190FFE70198FF2813D8FFE79C
:103C000000200090FFE70098000C002806D1FFE795
:103C100000BFFFE70098401C0090F4E7FFE7019821
:103C2000401C0190E8E702B07047000080B588B002
:103C300003A8019000F0FEF901980E49059100F0EB
:103C4000D5F9E1204102002002900B4A0B4B02F013
:103C5000B5FA029913480A4A402300F069FA02981B
:103C6000042102F069FB0F20012100F02CFE08B0B6
:103C700080BDC0466B4000000A2000000B20000001
:103C80006401202080B582B005490191002002F036
:103C900027FB01990348012200F092FA02B080BD8F
:103CA000A4012020A501202070B5FFB0A5B0A390ED
:103CB000A291A192A0939EA9002008809DA90880AE
:103CC0009CA9099108809BA908809AA90880A298BC
:103CD000FCF724FB09990880D4480088002804D008
:103CE000FFE7D24800698047FFE7D1480078002805
:103CF00000D16DE1CD480088002800D145E1CB48D6
:103D00000890C3689AAA1188481C1080A39A0020C2
:103D10009847A2989F90A298FCF700FB08999CAA4C
:103D2000108048888979FCF77DFB9BA90880FFE714
:103D30009F98411C9F9100214056002801D0FFE729
:103D4000F6E79DA900200880FFE79DA801880020D4
:103D5000012907900DDCFFE7002105919CA8415E39
:103D600001200029069001DA059806900698079030
:103D7000FFE70798C00700281AD0FFE79F98401E6A
:103D80009F909F98002140562F2806D0FFE79F98CC
:103D9000002140565C2805D1FFE79D98401C9DA955
:103DA0000880FFE7FFE79C98401E9CA90880CCE7AD
:103DB00000219CA8405E002809D4FFE79F98401C82
:103DC0009F909F9A86495AA8FCF792FA11E09DA805
:103DD0000088002806D1FFE79F9A82495AA8FCF77D
:103DE00087FA05E09F9A7E495AA8FCF781FAFFE717
:103DF000FFE79EA900200880FFE79EA800880490A6
:103E00005AA8FCF78BFA00229BA9895EFCF70AFBF3
:103E100001460498491C884245D2FFE79DA900202D
:103E20000880FFE79DA8008800229BA9895E884240
:103E300024DAFFE75AA8FCF771FA9DA909889EAA1F
:103E4000138800249BAA125F5A438918884201D222
:103E5000FFE713E09DA908889EAA138800249BAA67
:103E6000125F5A4382185AA8805C0A884AA988546B
:103E7000FFE79D98401C9DA90880D3E79DA8018875
:103E80004AAA002050546949CB68CC799A994D1CB4
:103E90009AAE3580614389B29847FFE79E98401CEF
:103EA0009EA90880A9E7A19A4F495AA80390FCF758
:103EB0001FFA039A5D48C368C1799A98441C9AAD69
:103EC0002C80484381B200209847A09800285BD0FE
:103ED000FFE79EA900200880FFE79EA800880290C7
:103EE000A098FCF71BFA00229BA9895EFCF79AFABE
:103EF00001460298491C884245D2FFE79DA900204F
:103F00000880FFE79DA8008800229BA9895E88425F
:103F100024DAFFE7A098FCF701FA9DA909889EAA78
:103F2000138800249BAA125F5A438918884201D241
:103F3000FFE713E0A0989DA90A889EAB1C88002586
:103F40009BAB5B5F6343D218805C0A884AA98854A4
:103F5000FFE79D98401C9DA90880D3E79DA8018894
:103F60004AAA002050543149CB68CC799A994D1C0B
:103F70009AAE3580614389B29847FFE79E98401C0E
:103F80009EA90880A9E7FFE721E0012001020AA815
:103F9000FCF743FA25488168A3988847A098002831
:103FA00009D0FFE7A29AA19BA09800900B490AA80C
:103FB000FCF79EF906E0A29AA19B07490AA8FCF724
:103FC00097F9FFE7194881680AA88847FFE7FFE7E4
:103FD0007FB025B070BDC046147200002972000089
:103FE000647200006D7200004272000081B00090A7
:103FF000009800880D490880009840884880009803
:10400000808888800098807988710098C079C8710C
:104010000098806888600098C068C860009800694F
:10402000086103490120087001B070475001202049
:104030009802202081B00090009900200880009A0A
:1040400008495180009A9180009AFF219171009A4D
:10405000D171009988600099C8600099086101B029
:104060007047C046FFFF0000704780B582B00190E6
:104070000199002002F024FA02B080BD82B00190C4
:10408000009102B0704710B585B004900391039A77
:10409000049902918B79C8790002C318087A040444
:1040A000487A00060019C0188018020E4A72020CE5
:1040B0000A728871000AC871FFE7049901918A7C2D
:1040C000C87C00028218087D0304487D0006C018E1
:1040D00080188B79CA791202D2180B7A1B04497A9C
:1040E0000906C918891888421FD8FFE7049900916A
:1040F0008A7CC87C00028218087D0304487D000683
:10410000C01882188B79C8790002C318087A040491
:10411000487A00060019C018801A020E4A72020C72
:104120000A728871000AC871C7E705B010BD0000A7
:1041300010B586B0059004A801700392029305980B
:10414000411E88411C491D4AFFF71CFD01A90020A2
:104150000870FFE703980599020E4A71020C0A7174
:104160008870000AC87005990020009008700499B2
:10417000059A5170059948720872C871887105993D
:1041800048730873C872887202980599020E4A74BF
:10419000020C0A748873000AC87302980599020E0B
:1041A0004A75020C0A758874000AC874FFE701A8F2
:1041B000007806B010BDC0467A72000022020000EE
:1041C00010B592B0119010910F921198411E884134
:1041D000E449B022FFF7D6FC0EA9002008700D902C
:1041E000FFE71098002804D1FFE70EA9032008700C
:1041F000B3E1119800780521084204D0FFE70EA929
:1042000004200870A9E1119908780422104308706D
:104210000F9811998B7BCA7B1202D2180B7C1B045E
:10422000497C0906C9188918884200D98BE111997F
:104230000C918A7CC87C00028218087D0304487DAA
:104240000006C01880188B79CA791202D2180B7A2E
:104250001B04497A0906C9188918401A0D900F984D
:104260000D99884200D8E5E0119840780B9000281D
:1042700009D0FFE70B98012849D0FFE70B980228E7
:1042800000D18DE0D5E0119909918A78C8780002B3
:1042900082180879030448790006C01880188B79C1
:1042A000CA791202D2180B7A1B04497A0906C91876
:1042B0008918401810990D9AFCF752F811980D9929
:1042C000FFF7E1FE11990A918A78C87800028218F6
:1042D0000879030448790006C01880188B79CA79D8
:1042E0001202D2180B7A1B04497A0906C9188918D8
:1042F000401810990D9BC9180F9AD21AFCF730F884
:1043000011980F990D9A891AFFF7BDFE91E0119946
:1043100007918A78C87800028218087903044879DE
:104320000006C01880188B79CA791202D2180B7A4D
:104330001B04497A0906C9188918490040181099C0
:104340000D9A5200FCF70CF811980D99FFF79BFE9F
:10435000119908918A78C8780002821808790304B4
:1043600048790006C01880188B79CA791202D218D1
:104370000B7A1B04497A0906C918891849004018A4
:1043800010990D9B5A0089180F9AD21A5200FBF708
:10439000E7FF11980F990D9A891AFFF774FE48E00C
:1043A000119905918A78C878000282180879030467
:1043B00048790006C01880188B79CA791202D21881
:1043C0000B7A1B04497A0906C91889188900401814
:1043D00010990D9A9200FBF7C3FF11980D99FFF702
:1043E00052FE119906918A78C878000282180879DD
:1043F000030448790006C01880188B79CA79120224
:10440000D2180B7A1B04497A0906C9188918890041
:10441000401810990D9B9A0089180F9AD21A920091
:10442000FBF732FF11980F990D9A891AFFF72BFEAF
:10443000FFE772E0119840780490002808D0FFE769
:104440000498012824D0FFE70498022842D063E0B2
:10445000119903918A78C8780002821808790304B8
:1044600048790006C01880188B79CA791202D218D0
:104470000B7A1B04497A0906C91889184018109943
:104480000F9AFBF76DFF11980F99FFF7FCFD43E0C2
:10449000119902918A78C878000282180879030479
:1044A00048790006C01880188B79CA791202D21890
:1044B0000B7A1B04497A0906C91889184900401863
:1044C00010990F9A5200FBF74BFF11980F99FFF7C5
:1044D000DAFD21E0119901918A78C87800028218EA
:1044E0000879030448790006C01880188B79CA79C6
:1044F0001202D2180B7A1B04497A0906C9188918C6
:104500008900401810990F9A9200FBF729FF119823
:104510000F99FFF7B8FDFFE7FFE70F9A1199009198
:104520008B7BC87B0002C318087C0404487C00060F
:104530000019C018801A020E4A74020C0A7488739B
:10454000000AC87303E00EA905200870FFE711995F
:104550000878FB2210400870FFE70EA8007812B020
:1045600010BDC0467A72000083B002A908700878B6
:10457000420901A802700A781F210A4069460A70A0
:1045800000788200BA4880582722D20180580978E2
:10459000C8400121084003B07047C04610B58AB03A
:1045A00009AC207008A8017007A90A7006A90B7051
:1045B000007810280AD1FFE708A8017806A800783B
:1045C000014001201029029014D0FFE708A80178CB
:1045D0000020002901900AD1FFE708A8007806A969
:1045E000097808401038411E88410190FFE7019882
:1045F0000290FFE70298012108405249B522FFF7D7
:10460000C1FA09A80178490905AA117000781F218B
:10461000084004A908700020039003984A49084301
:10462000039006A80078401E009013284FD80098E9
:10463000810001A040588746894600008F4600004F
:1046400099460000A3460000CF460000CF46000078
:10465000CF460000CF460000CF460000CF46000006
:10466000CF460000CF460000CF460000CF460000F6
:10467000CF460000CF460000AD460000B746000020
:10468000C1460000C3460000002003901FE00398CD
:104690000121084303901AE003982E490843039030
:1046A00015E003982A490843039010E0039801217C
:1046B000084303900BE0039824490843039006E065
:1046C00005E003980121490608430390FFE703989A
:1046D00005A90978490104AA12788A181E49895C3B
:1046E00089001E4A885008A80078102812D1FFE7D8
:1046F00004A801780120884005A909788A005C494E
:104700008958174A885009A8007807A9097800F045
:1047100043F8FFE706A80078032806D1FFE709A8B9
:104720000078002100F038F8FFE706A80078042898
:1047300006D1FFE709A80078012100F02DF8FFE776
:104740000AB010BDA5720000800004000100000244
:104750000100020001000100B87100000480424025
:10476000D012000080B584B0102101910022029285
:10477000112303931046FFF711FF0199029A039B3F
:104780000120FFF70BFF0199029A039B0E20FFF710
:1047900005FF04B080BD000084B00A4603A908707C
:1047A00002A802700A78520901AB1A7009781F2218
:1047B00011406A461170007800280ED0FFE7684665
:1047C00000780123834001A80078810028484158DF
:1047D000284A8858184388500EE06846007801231C
:1047E000834001A80078810021484158952042016A
:1047F000885818438850FFE704B0704710B583B05D
:1048000002A908700878420901A802700B781F22DB
:1048100013406C462370007883001548C058252348
:10482000DB01C05809781140C840C00700280FD0EC
:10483000FFE7684600780123834001A800788100E3
:104840000B484158952042018858184388500DE084
:10485000684600780123834001A80078810004485D
:104860004158044A885818438850FFE703B010BDE8
:10487000840020209012000080B582B0014601A87B
:10488000017000214056FEF7A5FF02B080BD80B543
:1048900082B0014601A8017000214056FEF7B4FF26
:1048A00002B080BD06480068002802D1FFE772B65A
:1048B000FFE703480168491C016000687047C04673
:1048C00040022020704780B582B00A46014601A808
:1048D000017069460A70002280560978FEF7AAFF27
:1048E00002B080BD81B0014668460170027851492E
:1048F0000020885401B0704781B0014668460170BD
:1049000001784C48405C01B07047C04680B584B027
:1049100003900398411E884114498C22FFF732F915
:1049200002A9002008700870FFE702A80078032899
:1049300016DCFFE702A8009001783D48405C0021AA
:10494000019101220423FFF729FE009901980A78BA
:1049500038498854FFE70298401C02A90870E4E730
:1049600003983649086004B080BDC046A6730000B5
:1049700010B582B001A9002008700870FFE701A8F7
:104980000078032851DCFFE701A801782848405C43
:10499000FFF7EAFD012817D0FFE72848046801A9BE
:1049A000087883002448C2581219C2500978890037
:1049B0004058C0087D2806D3FFE701A802781D49AA
:1049C00002208854FFE72AE001A801781948405CDA
:1049D000022817D0FFE701A8007881001648405848
:1049E0000A280FD3FFE701A8007881001248405839
:1049F000C0087C2806D8FFE701A802780D490120ED
:104A0000885405E001A802780A4900208854FFE78D
:104A100001A800788200084900208850FFE7FFE7DE
:104A20000198401C01A90870A9E702B010BDC0465A
:104A3000FB71000054022020440220207402202038
:104A400080B584B0002001900390C848FEF7E4FFD1
:104A5000FFF7ECF801F05CFB0120FFF757FF019A2C
:104A600036201021029111230093FFF797FD009B40
:104A7000019A02993520FFF791FD00F00BFB00F041
:104A800057FE01990D4A084601F09EFA01980299D5
:104A90000B4A01F099FAFFE70020FFF72DFF0128EC
:104AA0000AD1FFE70020FFF71DFF3620FFF7A6FE23
:104AB0003520FFF7A3FEFFE7EEE7C046FF710000D9
:104AC0000A72000082B00190009102B070470000AD
:104AD00081B001466846017000788100A2484158C3
:104AE000A44A885801231843885001B07047C04633
:104AF00010B58AB0044609A8019004700891079285
:104B0000069300780121039101F024FB9249029160
:104B100083225200FFF736F802990898421E90410E
:104B20002122D200FFF72EF8039808990C4A00239F
:104B300004939142059001D3049805900299059839
:104B4000FF220A32FFF71EF801980078089A7D21AB
:104B5000C9005143079A069B00F07AF80AB010BDCD
:104B6000F17F000070B590B003460FA803700E915E
:104B70000D92007881007C48405807900E9806906E
:104B80000D983249FBF74EFC069948430C900CA84F
:104B900041880B910B99090A09AA11700088002815
:104BA00012D1FFE70BA8007800280DD1FFE7099884
:104BB000401E09A908700B980978491CFBF732FCC4
:104BC000401E08A9087008E00B9809A90978491C3B
:104BD000FBF728FC08A90870FFE70C9809A90191C8
:104BE0000978491CFBF71EFC08A900910978491CAB
:104BF000FBF718FC01460198491E0AAA029211808F
:104C0000017801200390002204920829059001DB1D
:104C100004980590039C05984F496E22FEF7B2FF59
:104C2000019A00990298079DCE4E0823AB51127845
:104C3000079B24031A510978079ACB4BD15000885F
:104C40000799CA4A885010B070BDC04640420F0054
:104C500010B58AB0044609A8049004700891079220
:104C600006930078012101F075FA3B490391CF22A8
:104C7000FEF788FF03990898421E9041D122FEF763
:104C800081FF03990898C00D42425041D222FEF79D
:104C900079FF0498007801F049FA04990698097898
:104CA0008A002E4988500798002803D1FFE72C4836
:104CB000029002E007980290FFE7029909A80278A3
:104CC0009300284AD15001788A00EC49895805910F
:104CD0000078062810D1FFE70599A24A08208850DD
:104CE0000599012002030720885008990A204843AB
:104CF0000599E34A885018E009A80078022805D0F1
:104D0000FFE709A80078052807D1FFE709A8007880
:104D10000899174AFFF726FF06E009A800780899C6
:104D20008F4AFFF71FFFFFE7FFE705998B4A222015
:104D300088500599104A885802231843885009A8BA
:104D4000019001780D484056FFF7A1FD01980078C9
:104D5000FFF7BEFE0AB010BDD07200008C0020200C
:104D6000C54A000058022020D073000000B4C404DB
:104D7000005A62020418000028100000F4710000BC
:104D800010B592B0119010910F9211A841880F2088
:104D900001400EA8029001700078032101F0DAF9B9
:104DA000B54903916422FEF7EDFE0F99B14A012047
:104DB000002304939142059001D304980590039930
:104DC00005986622FEF7DEFE0298007801F0AEF943
:104DD000119801040A0FC0B210211323FEF770FDD1
:104DE000029811998A0B3C210A40A44989580D91D7
:104DF0000D9A5A4B2221D15059490C910078022822
:104E000005D0FFE70EA80078052804D1FFE70C982D
:104E100040080C90FFE70EA8007806280BD1FFE7AA
:104E20000C981099FBF7FEFA0B9008A90020087067
:104E300007A908702BE00C981099FBF7F3FA0B9078
:104E40000BA841880A910A99090A08AA11700088DA
:104E5000002812D1FFE70AA8007800280DD1FFE74B
:104E60000898401E08A908700A980978491CFBF7A1
:104E7000D9FA401E07A9087008E00A9808A909781D
:104E8000491CFBF7CFFA07A90870FFE7FFE70B986B
:104E900008A900910978491CFBF7C4FA07A90191F8
:104EA0000978491CFBF7BEFA009902460198521E88
:104EB00009920D9B2B4C08221A5109780D9A012357
:104EC0001C03115100780D99274A885009980D99B3
:104ED0006B4A885011980002000F0690119800024A
:104EE000000F83400D991120020288581843885002
:104EF0000698012813D8FFE7069A90055107084342
:104F00000D99D207520F8918194A88500D980699A1
:104F1000C907490F4118194A1748885012E0069AE4
:104F20009005510708430D99D207520F8918104A6E
:104F300088500D980699C907490F41180D4A0E4827
:104F40008850FFE711980F9900F01AF80D99034A5D
:104F5000885801231843885012B010BD041800006F
:104F600000B4C404081000000C1100000818000070
:104F700030180000781800000104000070180000CC
:104F800080B58CB00B900A910A993A4A012000230F
:104F900004939142059001D30498059005983649F1
:104FA0003622FEF7EFFD0B98810B3C200140334881
:104FB0004058099009983249405808900898FCF7E1
:104FC00035F903900A98FCF731F92E49FCF73AF8C5
:104FD0000146039801F082FBFCF7E4F807900B9878
:104FE0000002000F06900698012815D8FFE70798E1
:104FF0000899884204D1FFE70898401C029002E01B
:1050000007980290FFE702980999069AD207520F73
:1050100089181E4A885014E007980899884204D1DC
:10502000FFE70898401C019002E007980190FFE715
:1050300001980999069AD207520F8918124A885086
:10504000FFE70A98002809D1FFE70698012383406B
:1050500009990F4A88581843885008E00698012398
:10506000834009990A4A885898438850FFE70CB052
:1050700080BDC04611270000FA720000D073000006
:105080000818000000401C46181800001018000006
:105090000411000080B516483221054AFFF770FE62
:1050A00031495A2008602F490120086080BDC04660
:1050B000EE02000080B582B0014601A801700078C0
:1050C000B52804DBFFE701A9B4200870FFE701A8B9
:1050D00001787D20C0004843B421FBF7A3F9FA30E2
:1050E000009000990248FFF74BFF02B080BDC04618
:1050F0002750150080B582B001F006F801900198A4
:1051000017490968401A132801D8FFE725E00198DC
:105110001349086013480268134801688918016040
:105120000068B42808DBFFE70F49B42008600D4988
:105130000020C0430860FFE70B480068002807DC38
:10514000FFE7094900200860064901200860FFE7E1
:1051500005480078FFF7AEFFFFE702B080BDC0460C
:1051600078022020000020204801202083B00A4639
:1051700002A9087001A802806B4600221A800978F3
:1051800040788A00DC498958452292018850FFE71F
:1051900002A800788100D84840583D49405840074F
:1051A000002801D5FFE7F3E702AA10788000D24972
:1051B0000858384BC0586B46188001A80078127800
:1051C00092008958452292018850FFE702A8007892
:1051D0008100C94840582E4940584007002801D551
:1051E000FFE7F3E70098000202A909788A00C249A4
:1051F0008958284A8958084369460880FFE702A869
:1052000000788100BC48405821494058C006002819
:1052100001D5FFE7F3E76846008803B07047C04652
:1052200083B00A4602A9087001A802706B460022EA
:105230001A70097800788A00AF498958452292018E
:105240008850FFE702A800788100AB484058104919
:1052500040584007002801D5FFE7F3E702A800788F
:105260008100A54840580B49405869460870FFE73F
:1052700002A800788100A048405805494058C0065F
:10528000002801D5FFE7F3E76846007803B07047D0
:10529000101100003011000010B59CB00B910446B5
:1052A0000B9820991F991E991BA90E910C701AAC8E
:1052B00020701992189318A840880F220D92104060
:1052C0000978401A414248419E490C91834AFEF7B1
:1052D00059FC0C990D9B0E9A1EA840881840127814
:1052E000801A424250417E4AFEF74CFC0D9A0E98BD
:1052F0001FA9498811400278012091420F9007D0E0
:10530000FFE71F9877494018414248410F90FFE757
:105310000F980121099108408A49C7229200FEF79F
:1053200031FC099820A949880F2211401BAA127844
:1053300091420A9007D0FFE720986A4940184142FD
:1053400048410A90FFE70A98012108407D49664AD2
:10535000FEF718FC189801040A0FC0B2102108913A
:105360001123FEF7ADFA08991E980204120FC0B27D
:105370001323FEF7A5FA1F985C49884209D0FFE77E
:105380001F9801040A0FC0B200210223FEF798FA09
:10539000FFE720985549884209D0FFE7209801048B
:1053A0000A0FC0B210211323FEF78AFAFFE715A9EE
:1053B000002008814E4816904E48159014A90820E8
:1053C00008801AA800780790032820D80798810041
:1053D00001A040588746C046E9530000F153000041
:1053E000FB5300000554000015A9202048800EE062
:1053F0001120400115A9488009E00920400115A9A4
:10540000488004E01920400115A94880FFE71BA847
:1054100003900078810038480490405814A9FDF7A3
:10542000F7FB0399049809788900405815A9FDF7FE
:10543000ADFB13A905910020069008802F4812901B
:10544000129809884900891CFAF7ECFF0599119018
:10545000129809884900891CFAF7E4FF0599024669
:10546000069810920880FFE713A800882449884214
:1054700016DCFFE7129813A909884900891CFAF77E
:10548000D1FF109010981999884201D8FFE707E0E2
:1054900010981190FFE71398401C13A90880E3E7C8
:1054A0001BA801900078810013480290405813A96E
:1054B0000988FDF79BFB01990298097889004058FB
:1054C00008210522FDF7B6FB0199029809788900A9
:1054D0004058FDF745FB1CB010BDC0461A03000044
:1054E0001B0300000100F0FF1D030000FFFF0F0081
:1054F0000000071004002000A800202000B4C4040D
:10550000FE03000080B584B003AB187002910192D5
:105510000298411E88410B49CA22FEF733FBFFE780
:105520000198411E0191002809D0FFE703A80078E7
:1055300002998A1C02920988FFF718FEF0E704B06E
:1055400080BDC0462473000080B582B00A46014683
:1055500001A8017069460A7000780978FFF760FEBB
:1055600002B080BD7047000081B000900F49104824
:1055700008601049002008600F4905200860FFE717
:105580000098411E009100280ED0FFE7FFE70A486F
:105590000068C003002801D4FFE7F8E7064908685F
:1055A000012210430860EBE701B0704714E000E00F
:1055B0008038010018E000E010E000E0F0B503AF33
:1055C00089B06E46F21D0D327260544801786B4608
:1055D000D3604B00DC1D07239C436B461B1BB36051
:1055E0009D469160F21D1132F260002131611180FF
:1055F000F21D0D3211802C4A5368952254011A591C
:105600000125AD032A431A510078421E4448007810
:10561000401E92B283B2084600F0AEFAF1683069DB
:105620000880FFE7F01D113000883C490978884266
:1056300010DAFFE7B1681E480088F21D11321288A7
:1056400052008852FFE770684068401CF11D11311C
:105650000880E7E7F11D0D3100200880FFE7F01D0D
:105660000D3000882E49097888420EDAFFE7B168CC
:105670002A4802780120FFF745FFFFE770680068BD
:10568000401CF11D0D310880E9E7706806494A6841
:10569000064BD1580124A4032143D150C06885464C
:1056A000FE1F053EB546F0BD84002020901200008C
:1056B000B000202080B588B003A80190FEF7BAFCA6
:1056C0000199012008801548007848801448007826
:1056D0008880144800780290002808D0FFE70298DC
:1056E00001280AD0FFE7029802280CD00CE003A999
:1056F000062088710820C87106E003A90820887177
:105700001020C87100E0FFE707480690074807909F
:1057100003A8FEF76BFC08B080BDC046B600202091
:10572000B7002020B2002020C95F0000BD55000056
:1057300010B59EB0F04802900190F048009001240E
:105740001B9400211791EE4AEE4B2046FFF7A4FD73
:10575000179A2B2010210E9111231293FEF71EFF92
:105760000E99129B179A2A201890FEF717FF0E9990
:10577000129B2E202246FEF711FF0E99129B3A2013
:105780002246FEF70BFFFB481C90007800F0D2F990
:10579000E6480088E649098800F0BAF9DA4810902E
:1057A00041689520420111928858A3020F93184333
:1057B00088500A201690FFF7D7FE0F9B109841687B
:1057C000D24A88581843885078201390FFF7CCFEAF
:1057D0001099119B12984A68D158A4032143D150C3
:1057E00000F064FC1398FFF7BFFEB12000F05EFCF0
:1057F0001B990846FFF7A8FE1B982C211491FFF770
:10580000A3FE1B982D211591FFF79EFEB22000F0FC
:105810004DFC1B990846FFF797FE14991B98FFF75C
:1058200093FE15991B98FFF78FFEB32000F03EFC06
:105830001B990846FFF788FE14991B98FFF784FE12
:1058400015991B98FFF780FE1B990846FFF77CFE11
:1058500014991B98FFF778FE15991B98FFF774FEB3
:10586000B42000F023FC1B980721FFF76DFEC02039
:1058700000F01CFC1B98A221FFF766FE1B9802217A
:10588000FFF762FE1B988421FFF75EFEC12000F047
:105890000DFC1B98C5211A91FFF756FEC22000F09F
:1058A00005FC16991B98FFF74FFE17991B98FFF7F9
:1058B0004BFEC32000F0FAFB1B988A211991FFF7D9
:1058C00043FE18991B98FFF73FFEC42000F0EEFB43
:1058D00019991B98FFF738FE1B98EE21FFF734FE4D
:1058E0001A9800F0E3FB1B980E21FFF72DFE3620DF
:1058F00000F0DCFB1C9800781D90032820D81D9830
:10590000810001A040588746195900002359000022
:105910002D590000375900000120C021FFF714FE67
:105920000EE001200021FFF70FFE09E00120A02179
:10593000FFF70AFE04E001206021FFF705FEFFE704
:10594000E02000F0B3FB01200D900F210591FFF73F
:10595000FBFD0D981A21FFF7F7FD05990D98FFF74C
:10596000F3FD0D981821FFF7EFFD0D982F21FFF79C
:10597000EBFD0D982821FFF7E7FD0D982021FFF79B
:10598000E3FD0D982221FFF7DFFD0D981F21FFF7A2
:10599000DBFD0D981B210491FFF7D6FD0D98232107
:1059A000FFF7D2FD0D983721FFF7CEFD0D980021AE
:1059B0000B91FFF7C9FD0D9807210791FFF7C4FD73
:1059C0000D9802210991FFF7BFFD0D981021089154
:1059D000FFF7BAFDE12000F069FB05990D98FFF78C
:1059E000B3FD04990D98FFF7AFFD05990D98FFF7EA
:1059F000ABFD0D981721FFF7A7FD0D983321FFF799
:105A0000A3FD0D982C21FFF79FFD0D9829210C91E6
:105A1000FFF79AFD0D982E21FFF796FD0D98302186
:105A20000691FFF791FD06990D98FFF78DFD0D98F2
:105A30003921FFF789FD0D983F21FFF785FD0B996F
:105A40000D98FFF781FD07990D98FFF77DFD0D98E3
:105A500003210A91FFF778FD08990D98FFF774FD6F
:105A60002A2000F023FB0B990D98FFF76DFD099993
:105A70000D98FFF769FD0B990D98FFF765FD0D98DF
:105A80008221FFF761FD2B2000F010FB0B990D9890
:105A9000FFF75AFD0A990D98FFF756FD0B990D98DF
:105AA000FFF752FD0D988321FFF74EFDF02000F027
:105AB000FDFA0D990846FFF747FDF62000F0F6FACB
:105AC0000B990D98FFF740FD3A2000F0EFFA0D9882
:105AD0000521FFF739FD0C9800F0E8FA0D9B0A4804
